:100000000C945E000C9486000C9486000C94860080
:100010000C9486000C9486000C9486000C94860048
:100020000C9486000C9486000C9486000C94860038
:100030000C9486000C9486000C9486000C94860028
:100040000C94BA030C9486000C942A040C940404B7
:100050000C9486000C9486000C9486000C94860008
:100060000C9486000C948600000000080002010039
:100070000003040700000000000000000000000072
:10008000250028002B0000000000240027002A0083
:10009000040404040404040402020202020203032E
:1000A0000303030301020408102040800102040836
:1000B00010200102040810205C04870611241FBED2
:1000C000CFEFD8E0DEBFCDBF22E0A6E3B1E001C0B4
:1000D0001D92A430B207E1F711E0A0E0B1E0E4E442
:1000E000F2E102C005900D92A633B107D9F710E0F6
:1000F000CDE5D0E004C02197FE010E941207CC3567
:10010000D107C9F70E94A0040C9415090C940000B3
:1001100090E0FC01EC55FF4F249180579F4FFC016C
:100120008491882399F090E0880F991FFC01EA5789
:10013000FF4FA591B491FC01E458FF4F8591949134
:100140008FB7F894EC91E22BEC938FBF089508954C
:10015000AF92BF92CF92DF92EF92FF920F931F93D5
:10016000CF93DF936C017B018B01040F151FEB0113
:100170005E01AE18BF08C017D10759F06991D601CA
:10018000ED91FC910190F081E02DC6010995892B3C
:1001900079F7C501DF91CF911F910F91FF90EF90FB
:1001A000DF90CF90BF90AF900895FC01538D448DA8
:1001B000252F30E0842F90E0821B930B541710F012
:1001C000CF96089501970895FC01918D828D98171F
:1001D00061F0A28DAE0FBF2FB11D5D968C91928DF7
:1001E0009F5F9F73928F90E008958FEF9FEF089528
:1001F0002FB7F89480913B0190913C01A0913D0173
:10020000B0913E012FBF8093470190934801A09386
:100210004901B0934A018FE391E00E94E40097FF07
:1002200026C02FB7F89480913B0190913C01A0919A
:100230003D01B0913E012FBF4091470150914801CF
:100240006091490170914A01841B950BA60BB70B75
:1002500040914301509144016091450170914601E4
:1002600084179507A607B707B0F28FEF9FEF0895A1
:10027000FC01918D828D981731F0828DE80FF11D70
:10028000858D90E008958FEF9FEF0895FC01918D8B
:10029000228D892F90E0805C9F4F821B91098F7384
:1002A000992708958FE391E00E94460121E0892B70
:1002B00009F420E0822F089580E090E0892B29F056
:1002C0000E94520181110C9400000895FC01A48D3C
:1002D000A80FB92FB11DA35ABF4F2C91848D90E068
:1002E00001968F739927848FA689B7892C93A0894B
:1002F000B1898C91837080648C93938D848D9813D5
:1003000006C00288F389E02D80818F7D8083089567
:10031000EF92FF920F931F93CF93DF93EC0181E055
:10032000888F9B8D8C8D98131AC0E889F9898081FC
:1003300085FF15C09FB7F894EE89FF896083E8892F
:10034000F98980818370806480839FBF81E090E021
:10035000DF91CF911F910F91FF90EF900895F62EAE
:100360000B8D10E00F5F1F4F0F731127E02E8C8D48
:100370008E110CC00FB607FCFACFE889F98980818D
:1003800085FFF5CFCE010E946601F1CFEB8DEC0F1A
:10039000FD2FF11DE35AFF4FF0829FB7F8940B8FAA
:1003A000EA89FB8980818062CFCFCF93DF93EC0114
:1003B000888D8823B9F0AA89BB89E889F9898C914D
:1003C00085FD03C0808186FD0DC00FB607FCF7CF09
:1003D0008C9185FFF2CF808185FFEDCFCE010E9409
:1003E0006601E9CFDF91CF91089590E0FC01E859D3
:1003F000FF4F2491FC01EC55FF4F3491FC01E05775
:10040000FF4FE491EE23C9F0222339F0233001F1AC
:10041000A8F4213019F1223029F1F0E0EE0FFF1F8E
:10042000E458FF4FA591B4918FB7F894EC91611106
:1004300026C030953E233C938FBF08952730A9F006
:100440002830C9F0243049F7809180008F7D03C0A7
:10045000809180008F7780938000DFCF84B58F7785
:1004600084BDDBCF84B58F7DFBCF8091B0008F77CB
:100470008093B000D2CF8091B0008F7DF9CF3E2B1A
:10048000DACF1F93CF93DF93182FEB010E948800E0
:10049000209739F460E0812FDF91CF911F910C9468
:1004A000F501CF3FD10511F461E0F5CFE12FF0E088
:1004B000E859FF4FE491E33031F140F4E130B1F01D
:1004C000E230E1F0C038D1057CF7E4CFE73029F124
:1004D000E83059F1E430B1F7809180008062809378
:1004E0008000D0938B00C0938A0004C084B58068DC
:1004F00084BDC7BDDF91CF911F91089584B58062FF
:1005000084BDC8BDF7CF8091800080688093800053
:10051000D0938900C0938800EDCF8091B0008068AF
:100520008093B000C093B300E5CF8091B0008062AB
:100530008093B000C093B400DDCFFC010190002097
:10054000E9F73197AF01481B590BBC018FE391E0EC
:100550000C94A800CF93DF93FC0144815581608106
:1005600071818FE391E00E94A800EC0188E191E0A5
:100570000E949D028C0F9D1FDF91CF9108950F93D4
:100580001F93CF93DF938C01EB01FC01808191815C
:100590000097E1F06881798161157105A9F04281C8
:1005A00053812C813D814217530770F00E940E0940
:1005B0008C819D81F801958384831D821C82DF914B
:1005C000CF911F910F9108950E94B407888199815E
:1005D000F801918380838A819B81938382838C81BC
:1005E0009D8195838483198218821B821A82E5CFAC
:1005F000CF93DF93EC0188819981009711F00E94DD
:10060000B407198218821D821C821B821A82DF9114
:10061000CF910895FC0180819181009711F00C9495
:10062000B40708950F931F93CF93DF93EC01888154
:100630009981009759F02A813B812617370730F0BE
:1006400081E0DF91CF911F910F9108958B016F5F32
:100650007F4F0E943D08009759F0998388831B8340
:100660000A832C813D81232B59F7FC011082E8CFAE
:1006700080E0E7CFEF92FF920F931F93CF93DF932A
:10068000EC017B018A01BA010E94120381110BC0A7
:10069000CE010E94F802CE01DF91CF911F910F9100
:1006A000FF90EF9008951D830C83B7018881998195
:1006B0000E940E09F0CFFC01118210821382128277
:1006C0001582148250E040E06AE171E00C943A0334
:1006D000EF92FF920F931F93CF93DF9300D0CDB78C
:1006E000DEB78C010E945B030E94F80097FD21C0D9
:1006F00086329105F1F089831A82F801E480F58051
:10070000FFEFEF1AFF0AB701C8010E941203882306
:1007100059F3F8012081318184819581BE016F5F99
:100720007F4F820F931F0E940E09F801F582E48229
:10073000DBCFC8010F900F90DF91CF911F910F91E8
:10074000FF90EF900895CF93DF93EC016115710551
:1007500071F0FB0101900020E9F73197AF01461BD2
:10076000570B0E943A03CE01DF91CF9108950E946A
:10077000F802F9CF1F920F920FB60F9211242F9308
:100780003F938F939F93AF93BF9380913B01909141
:100790003C01A0913D01B0913E0130913A0123E02E
:1007A000230F2D3758F50196A11DB11D20933A0155
:1007B00080933B0190933C01A0933D01B0933E0197
:1007C0008091360190913701A0913801B0913901A3
:1007D0000196A11DB11D8093360190933701A0931E
:1007E0003801B0933901BF91AF919F918F913F91A3
:1007F0002F910F900FBE0F901F90189526E8230F92
:100800000296A11DB11DD2CF1F920F920FB60F926B
:1008100011242F933F934F935F936F937F938F9305
:100820009F93AF93BF93EF93FF938FE391E00E9469
:100830006601FF91EF91BF91AF919F918F917F9151
:100840006F915F914F913F912F910F900FBE0F903D
:100850001F9018951F920F920FB60F9211242F938D
:100860008F939F93EF93FF93E0914F01F09150018D
:100870008081E0915501F091560182FD1BC090816D
:10088000809158018F5F8F7320915901821741F039
:10089000E0915801F0E0E15CFE4F958F80935801A4
:1008A000FF91EF919F918F912F910F900FBE0F901D
:1008B0001F9018958081F4CFEFE3F1E0138212824C
:1008C00088EE93E0A0E0B0E084839583A683B783AD
:1008D0008AE091E09183808385EC90E0958784871E
:1008E00084EC90E09787868780EC90E0918B808BFA
:1008F00081EC90E0938B828B82EC90E0958B848BE3
:1009000086EC90E0978B868B118E128E138E148E50
:100910008AEF91E00E945B0384EF91E00E945B0309
:100920008EEE91E00E945B0388EE91E00E945B03F3
:1009300082EE91E00E945B038CED91E00C945B03EE
:10094000CF93DF93CDB7DEB728970FB6F894DEBF0D
:100950000FBECDBF789484B5826084BD84B58160BC
:1009600084BD85B5826085BD85B5816085BD80917A
:100970006E00816080936E001092810080918100F2
:1009800082608093810080918100816080938100EA
:10099000809180008160809380008091B1008460AC
:1009A0008093B1008091B00081608093B00080910D
:1009B0007A00846080937A0080917A0082608093CC
:1009C0007A0080917A00816080937A0080917A0029
:1009D000806880937A001092C100E0914F01F091FD
:1009E000500182E08083E0914B01F0914C01108234
:1009F000E0914D01F0914E018FEC808310925701F0
:100A0000E0915301F091540186E08083E09151011F
:100A1000F0915201808180618083E0915101F091D9
:100A20005201808188608083E0915101F0915201F0
:100A3000808180688083E0915101F0915201808132
:100A40008F7D80838BE00E9488008AE00E9488006E
:100A500089E00E94880080E0E82E80E0F82E8FE395
:100A600091E00E944601181619060CF02DC18BE189
:100A700091E00E949D0288E191E00E949D02CE01DA
:100A800001960E946803BE016F5F7F4F88EE91E080
:100A90000E94BF02CE0101960E940A03CE01019678
:100AA0000E946803BE016F5F7F4F82EE91E00E945B
:100AB000BF02CE0101960E940A03CE0101960E9458
:100AC0005B030E94F80097FD1BC08F8318860D8181
:100AD0001E810F5F1F4FB801CE0101960E941203C5
:100AE000882379F329813A818D819E81BE01695FD6
:100AF0007F4F820F931F0E940E091E830D83E1CF4B
:100B0000BE016F5F7F4F8CED91E00E94BF02CE016E
:100B100001960E940A038091EC019091ED01892BCE
:100B200009F4DEC00091E8011091E90166E270E08D
:100B3000C8010E940309009709F4D2C09C01201B40
:100B4000310B8901CE0101960E945B038091EC017B
:100B50009091ED010097E1F08017910708F48C0166
:100B6000E091E801F091E901E00FF11FD0801082DF
:100B70006091E8017091E901CE0101960E94A30302
:100B80008091E8019091E901080F191FF801D082C6
:100B9000BE016F5F7F4F8AEF91E00E94BF02CE01DE
:100BA00001960E940A038091E6019091E701892B4A
:100BB00009F499C00091E2011091E30166E270E04E
:100BC000C8010E940309009709F48DC09C01201BF5
:100BD000310B8901CE0101960E945B038091E601F1
:100BE0009091E7010097E1F08017910708F48C01DC
:100BF000E091E201F091E301E00FF11FD08010825B
:100C00006091E2017091E301CE0101960E94A3037D
:100C10008091E2019091E301080F191FF801D08241
:100C2000BE016F5F7F4F84EF91E00E94BF02CE0153
:100C300001960E940A036091DC017091DD0161154B
:100C4000710509F453C04091E0015091E1018EEE2D
:100C500091E00E943A038DE191E00E949D028AEFAB
:100C600091E00E94AA0284E291E00E949D0284EF3A
:100C700091E00E94AA028DE291E00E949D028EEE18
:100C800091E00E94AA028091FA019091FB010097E5
:100C900091F10E949F068BE00E9441028091F40135
:100CA0009091F501009759F10E949F068AE00E94F9
:100CB00041028091EE019091EF01009721F10E9495
:100CC0009F0689E00E944102E114F10409F4C7CEB5
:100CD0000E945201882309F4C2CE0E940000BFCEB8
:100CE0000FEF1FEF2FCF0FEF1FEF74CF8EEE91E0BE
:100CF0000E94F802B0CF60E070E0CB01CCCF60E0A2
:100D000070E0CB01D3CF60E070E0CB01DACF8CEDA7
:100D100091E00E940A0382EE91E00E940A0388EEAD
:100D200091E00E940A038EEE91E00E940A0384EF94
:100D300091E00E940A038AEF91E00C940A031F934A
:100D4000FC0199278827BC01E89411911032E9F33E
:100D5000193010F01E30C8F31B3251F01D3249F427
:100D6000689406C00E94C606610F711D811D911D09
:100D7000119110531A30B0F33EF490958095709510
:100D800061957F4F8F4F9F4F1F910895592F482F87
:100D9000372F262F660F771F881F991F660F771F23
:100DA000881F991F620F731F841F951F660F771F7F
:100DB000881F991F08952F923F924F925F926F92D2
:100DC0007F928F929F92AF92BF92CF92DF92EF92DB
:100DD000FF920F931F93CF93DF93CDB7DEB7CA1B5C
:100DE000DB0B0FB6F894DEBF0FBECDBF09942A8887
:100DF000398848885F846E847D848C849B84AA842F
:100E0000B984C884DF80EE80FD800C811B81AA81BB
:100E1000B981CE0FD11D0FB6F894DEBF0FBECDBF86
:100E2000ED010895EE0FFF1F0590F491E02D099458
:100E30000F931F93CF93DF938230910510F482E0DC
:100E400090E0E0910202F091030230E020E0B0E097
:100E5000A0E0309799F42115310509F44AC0281B08
:100E6000390B24303105D8F58A819B8161157105D4
:100E700089F1FB0193838283FE0111C0408151817E
:100E80000281138148175907E0F04817590799F470
:100E9000109761F012960C93129713961C9332964A
:100EA000CF01DF91CF911F910F910895009302021E
:100EB00010930302F4CF2115310551F04217530767
:100EC00038F0A901DB019A01BD01DF01F801C1CFB2
:100ED000EF01F9CF9093030280930202CDCFFE0180
:100EE000E20FF31F819391932250310939832883B4
:100EF000D7CF2091000230910102232B41F42091A1
:100F000002013091030130930102209300022091ED
:100F10000001309101012115310541F42DB73EB793
:100F20004091040150910501241B350BE091000212
:100F3000F0910102E217F307A0F42E1B3F0B2817D4
:100F4000390778F0AC014E5F5F4F2417350748F042
:100F50004E0F5F1F509301024093000281939193C3
:100F60009FCFF0E0E0E09CCFCF93DF930097E9F0D4
:100F7000FC01329713821282A0910202B091030207
:100F8000ED0130E020E01097A1F420813181820F43
:100F9000931F20910002309101022817390709F0B0
:100FA00061C0F0930102E0930002DF91CF910895B8
:100FB000EA01CE17DF07E8F54A815B819E01411502
:100FC0005105B1F7E901FB83EA8349915991C40FB7
:100FD000D51FEC17FD0761F4808191810296840F83
:100FE000951FE90199838883828193819B838A83FA
:100FF000F0E0E0E012968D919C9113970097B9F57F
:101000002D913C911197CD010296820F931F209153
:101010000002309101022817390739F6309751F54F
:101020001092030210920202B0930102A0930002F8
:10103000BCCFD383C28340815181840F951FC817D1
:10104000D90761F44E5F5F4F88819981480F591F1E
:10105000518340838A819B8193838283211531054B
:1010600009F0B0CFF0930302E09302029ECFFD019E
:10107000DC01C0CF13821282D7CFB0E0A0E0E3E45E
:10108000F8E00C94DD068C01009751F4CB010E942E
:1010900018078C01C801CDB7DEB7E0E10C94F90662
:1010A000FC01E60FF71F9C0122503109E217F307FC
:1010B00008F49DC0D901CD91DC911197C617D707CF
:1010C00098F0C530D10530F3CE0104978617970705
:1010D00008F3C61BD70B2297C193D1936D937C93D2
:1010E000CF010E94B407D6CF5B01AC1ABD0A4C01F8
:1010F0008C0E9D1EA0910202B0910302512C412C36
:10110000F12CE12C109731F58091000290910102B1
:101110008815990509F05CC04616570608F058C0B6
:101120008091000190910101009741F48DB79EB725
:101130004091040150910501841B950BE817F907B4
:1011400008F055C0F0930102E0930002F9017183A9
:101150006083A0CF8D919C91119712966C901297FD
:1011600013967C901397A815B90559F56C0142E0C8
:10117000C40ED11CCA14DB0420F1AC014A195B096E
:10118000DA011296159780F0628273825183408350
:10119000D9016D937C93E114F10471F0D70113969A
:1011A000FC93EE93129776CF22968C0F9D1FF90138
:1011B00091838083F301EFCFF0930302E093020267
:1011C00069CF4816590608F42C017D01D3019ACF46
:1011D000CB010E9418077C01009749F0AE01B801CD
:1011E0000E94FA08C8010E94B407870153CF10E09B
:1011F00000E050CFFB01DC0102C001900D92415094
:101200005040D8F70895FC018191861721F088237A
:10121000D9F7992708953197CF010895FB01DC0193
:1012200001900D920020E1F7089510E0CDE5D0E0A7
:1012300004C0FE010E9412072196CE35D107C9F7DE
:04124000F894FFCF50
:10124400000004028000000000008801A800D5000E
:10125400D5014601E40038010D0A003100726564CD
:10126400203A2000677265656E203A2000626C7532
:0612740065203A20000095
:00000001FF
